{
  "address": "0x5FbDB2315678afecb367f032d93F642f64180aa3",
  "abi": [
    {
      "inputs": [],
      "name": "helloWorld",
      "outputs": [
        {
          "internalType": "string",
          "name": "",
          "type": "string"
        }
      ],
      "stateMutability": "view",
      "type": "function"
    },
    {
      "inputs": [
        {
          "internalType": "string",
          "name": "_from",
          "type": "string"
        }
      ],
      "name": "updateFrom",
      "outputs": [],
      "stateMutability": "nonpayable",
      "type": "function"
    }
  ],
  "transactionHash": "0xd5b77d3d545bb55e43df28deae51d1a88bde60ffaffca057c675e38384ed0ea8",
  "args": [],
  "numDeployments": 1,
  "solcInputHash": "9f492a0826563d27345a96198411f55d",
  "bytecode": "0x608060405234801561001057600080fd5b506105f6806100206000396000f3fe608060405234801561001057600080fd5b50600436106100365760003560e01c80632171aa161461003b578063c605f76c14610057575b600080fd5b61005560048036038101906100509190610308565b610075565b005b61005f61008f565b60405161006c91906103d9565b60405180910390f35b806000908051906020019061008b92919061010b565b5050565b6060600080805461009f9061042a565b905014156100e4576040518060400160405280600c81526020017f48656c6c6f20576f726c642100000000000000000000000000000000000000008152509050610108565b60006040516020016100f69190610593565b60405160208183030381529060405290505b90565b8280546101179061042a565b90600052602060002090601f0160209004810192826101395760008555610180565b82601f1061015257805160ff1916838001178555610180565b82800160010185558215610180579182015b8281111561017f578251825591602001919060010190610164565b5b50905061018d9190610191565b5090565b5b808211156101aa576000816000905550600101610192565b5090565b6000604051905090565b600080fd5b600080fd5b600080fd5b600080fd5b6000601f19601f8301169050919050565b7f4e487b7100000000000000000000000000000000000000000000000000000000600052604160045260246000fd5b610215826101cc565b810181811067ffffffffffffffff82111715610234576102336101dd565b5b80604052505050565b60006102476101ae565b9050610253828261020c565b919050565b600067ffffffffffffffff821115610273576102726101dd565b5b61027c826101cc565b9050602081019050919050565b82818337600083830152505050565b60006102ab6102a684610258565b61023d565b9050828152602081018484840111156102c7576102c66101c7565b5b6102d2848285610289565b509392505050565b600082601f8301126102ef576102ee6101c2565b5b81356102ff848260208601610298565b91505092915050565b60006020828403121561031e5761031d6101b8565b5b600082013567ffffffffffffffff81111561033c5761033b6101bd565b5b610348848285016102da565b91505092915050565b600081519050919050565b600082825260208201905092915050565b60005b8381101561038b578082015181840152602081019050610370565b8381111561039a576000848401525b50505050565b60006103ab82610351565b6103b5818561035c565b93506103c581856020860161036d565b6103ce816101cc565b840191505092915050565b600060208201905081810360008301526103f381846103a0565b905092915050565b7f4e487b7100000000000000000000000000000000000000000000000000000000600052602260045260246000fd5b6000600282049050600182168061044257607f821691505b60208210811415610456576104556103fb565b5b50919050565b600081905092915050565b7f48656c6c6f20576f726c642066726f6d20000000000000000000000000000000600082015250565b600061049d60118361045c565b91506104a882610467565b601182019050919050565b60008190508160005260206000209050919050565b600081546104d58161042a565b6104df818661045c565b945060018216600081146104fa576001811461050b5761053e565b60ff1983168652818601935061053e565b610514856104b3565b60005b8381101561053657815481890152600182019150602081019050610517565b838801955050505b50505092915050565b7f2100000000000000000000000000000000000000000000000000000000000000600082015250565b600061057d60018361045c565b915061058882610547565b600182019050919050565b600061059e82610490565b91506105aa82846104c8565b91506105b582610570565b91508190509291505056fea2646970667358221220d93f56f3c5c46ec6e7b2a105ace73fe0f02ea5aaad0a595426595553c499b0ce64736f6c63430008080033",
  "devdoc": {
    "kind": "dev",
    "methods": {},
    "version": 1
  },
  "userdoc": {
    "kind": "user",
    "methods": {},
    "version": 1
  },
  "storageLayout": {
    "storage": [
      {
        "astId": 3,
        "contract": "contracts/HelloWorld.sol:HelloWorld",
        "label": "from",
        "offset": 0,
        "slot": "0",
        "type": "t_string_storage"
      }
    ],
    "types": {
      "t_string_storage": {
        "encoding": "bytes",
        "label": "string",
        "numberOfBytes": "32"
      }
    }
  }
}